{
  "_format": "hh-sol-artifact-1",
  "contractName": "Transaction",
  "sourceName": "contracts/Transaction.sol",
  "abi": [
    {
      "anonymous": false,
      "inputs": [
        {
          "indexed": false,
          "internalType": "uint256",
          "name": "transactionId",
          "type": "uint256"
        },
        {
          "indexed": false,
          "internalType": "address payable",
          "name": "from",
          "type": "address"
        },
        {
          "indexed": false,
          "internalType": "address payable",
          "name": "receiver",
          "type": "address"
        },
        {
          "indexed": false,
          "internalType": "uint256",
          "name": "amount",
          "type": "uint256"
        },
        {
          "indexed": false,
          "internalType": "uint256",
          "name": "timestamp",
          "type": "uint256"
        },
        {
          "indexed": false,
          "internalType": "string",
          "name": "keyword",
          "type": "string"
        },
        {
          "indexed": false,
          "internalType": "string",
          "name": "message",
          "type": "string"
        }
      ],
      "name": "Transfer",
      "type": "event"
    },
    {
      "inputs": [
        {
          "internalType": "address payable",
          "name": "_receiver",
          "type": "address"
        },
        {
          "internalType": "uint256",
          "name": "_amount",
          "type": "uint256"
        },
        {
          "internalType": "string",
          "name": "_message",
          "type": "string"
        },
        {
          "internalType": "string",
          "name": "_keyword",
          "type": "string"
        }
      ],
      "name": "createTransfer",
      "outputs": [],
      "stateMutability": "nonpayable",
      "type": "function"
    },
    {
      "inputs": [],
      "name": "transactionCount",
      "outputs": [
        {
          "internalType": "uint256",
          "name": "",
          "type": "uint256"
        }
      ],
      "stateMutability": "view",
      "type": "function"
    },
    {
      "inputs": [
        {
          "internalType": "uint256",
          "name": "",
          "type": "uint256"
        }
      ],
      "name": "transactions",
      "outputs": [
        {
          "internalType": "uint256",
          "name": "transactionId",
          "type": "uint256"
        },
        {
          "internalType": "address payable",
          "name": "sender",
          "type": "address"
        },
        {
          "internalType": "address payable",
          "name": "receiver",
          "type": "address"
        },
        {
          "internalType": "uint256",
          "name": "amount",
          "type": "uint256"
        },
        {
          "internalType": "uint256",
          "name": "timestamp",
          "type": "uint256"
        },
        {
          "internalType": "string",
          "name": "keyword",
          "type": "string"
        },
        {
          "internalType": "string",
          "name": "message",
          "type": "string"
        }
      ],
      "stateMutability": "view",
      "type": "function"
    }
  ],
  "bytecode": "0x608060405234801561001057600080fd5b506109a3806100206000396000f3fe608060405234801561001057600080fd5b50600436106100415760003560e01c80631843128b146100465780639ace38c214610062578063b77bf60014610098575b600080fd5b610060600480360381019061005b919061054d565b6100b6565b005b61007c600480360381019061007791906105e0565b610280565b60405161008f979695949392919061067b565b60405180910390f35b6100a0610412565b6040516100ad9190610660565b60405180910390f35b60016000808282546100c8919061076a565b9250508190555060008054905060003390506040518060e001604052808381526020018273ffffffffffffffffffffffffffffffffffffffff1681526020018773ffffffffffffffffffffffffffffffffffffffff16815260200186815260200142815260200184815260200185815250600160008481526020019081526020016000206000820151816000015560208201518160010160006101000a81548173ffffffffffffffffffffffffffffffffffffffff021916908373ffffffffffffffffffffffffffffffffffffffff16021790555060408201518160020160006101000a81548173ffffffffffffffffffffffffffffffffffffffff021916908373ffffffffffffffffffffffffffffffffffffffff160217905550606082015181600301556080820151816004015560a0820151816005019080519060200190610214929190610418565b5060c0820151816006019080519060200190610231929190610418565b509050507f669181ea01d136f1fedb2087d642ae1a8d50dbd868049cb33509f893e897b09f8282888842888a604051610270979695949392919061067b565b60405180910390a1505050505050565b60016020528060005260406000206000915090508060000154908060010160009054906101000a900473ffffffffffffffffffffffffffffffffffffffff16908060020160009054906101000a900473ffffffffffffffffffffffffffffffffffffffff16908060030154908060040154908060050180546103019061083e565b80601f016020809104026020016040519081016040528092919081815260200182805461032d9061083e565b801561037a5780601f1061034f5761010080835404028352916020019161037a565b820191906000526020600020905b81548152906001019060200180831161035d57829003601f168201915b50505050509080600601805461038f9061083e565b80601f01602080910402602001604051908101604052809291908181526020018280546103bb9061083e565b80156104085780601f106103dd57610100808354040283529160200191610408565b820191906000526020600020905b8154815290600101906020018083116103eb57829003601f168201915b5050505050905087565b60005481565b8280546104249061083e565b90600052602060002090601f016020900481019282610446576000855561048d565b82601f1061045f57805160ff191683800117855561048d565b8280016001018555821561048d579182015b8281111561048c578251825591602001919060010190610471565b5b50905061049a919061049e565b5090565b5b808211156104b757600081600090555060010161049f565b5090565b60006104ce6104c98461071d565b6106f8565b9050828152602081018484840111156104e657600080fd5b6104f18482856107fc565b509392505050565b6000813590506105088161093f565b92915050565b600082601f83011261051f57600080fd5b813561052f8482602086016104bb565b91505092915050565b60008135905061054781610956565b92915050565b6000806000806080858703121561056357600080fd5b6000610571878288016104f9565b945050602061058287828801610538565b935050604085013567ffffffffffffffff81111561059f57600080fd5b6105ab8782880161050e565b925050606085013567ffffffffffffffff8111156105c857600080fd5b6105d48782880161050e565b91505092959194509250565b6000602082840312156105f257600080fd5b600061060084828501610538565b91505092915050565b610612816107c0565b82525050565b60006106238261074e565b61062d8185610759565b935061063d81856020860161080b565b6106468161092e565b840191505092915050565b61065a816107f2565b82525050565b60006020820190506106756000830184610651565b92915050565b600060e082019050610690600083018a610651565b61069d6020830189610609565b6106aa6040830188610609565b6106b76060830187610651565b6106c46080830186610651565b81810360a08301526106d68185610618565b905081810360c08301526106ea8184610618565b905098975050505050505050565b6000610702610713565b905061070e8282610870565b919050565b6000604051905090565b600067ffffffffffffffff821115610738576107376108ff565b5b6107418261092e565b9050602081019050919050565b600081519050919050565b600082825260208201905092915050565b6000610775826107f2565b9150610780836107f2565b9250827fffffffffffffffffffffffffffffffffffffffffffffffffffffffffffffffff038211156107b5576107b46108a1565b5b828201905092915050565b60006107cb826107d2565b9050919050565b600073ffffffffffffffffffffffffffffffffffffffff82169050919050565b6000819050919050565b82818337600083830152505050565b60005b8381101561082957808201518184015260208101905061080e565b83811115610838576000848401525b50505050565b6000600282049050600182168061085657607f821691505b6020821081141561086a576108696108d0565b5b50919050565b6108798261092e565b810181811067ffffffffffffffff82111715610898576108976108ff565b5b80604052505050565b7f4e487b7100000000000000000000000000000000000000000000000000000000600052601160045260246000fd5b7f4e487b7100000000000000000000000000000000000000000000000000000000600052602260045260246000fd5b7f4e487b7100000000000000000000000000000000000000000000000000000000600052604160045260246000fd5b6000601f19601f8301169050919050565b610948816107c0565b811461095357600080fd5b50565b61095f816107f2565b811461096a57600080fd5b5056fea26469706673582212204421fdd5d3cd3781c2c008b12fd43450df713eb10f2b7a1f9eb59e7598bd249164736f6c63430008040033",
  "linkReferences": {},
  "deployedLinkReferences": {}
}